:020000040800F2
:1000000000000320C10100080D03000811030008CF
:1000100015030008190300081D0300080000000074
:1000200000000000000000000000000021030008A4
:100030002503000800000000290300082D03000824
:100040000D0200080D0200080D0200080D02000854
:100050000D0200080D020008310300080D0200081F
:100060000D0200080D0200080D0200080D02000834
:100070000D0200080D0200080D0200080D02000824
:100080000D0200080D0200080D0200080D02000814
:100090000D0200080D0200080D0200080D02000804
:1000A0000D0200080D0200080D0200080D020008F4
:1000B0000D0200080D0200080D0200080D020008E4
:1000C0000D0200080D0200080D0200080D020008D4
:1000D0000D0200080D0200080D0200080D020008C4
:1000E0000D0200080D0200080D0200080D020008B4
:1000F0000D0200080D0200080D0200080D020008A4
:100100000D0200080D0200080D0200080D02000893
:100110000D0200080D0200080D0200080D02000883
:100120000D0200080D0200080D0200080D02000873
:100130000D0200080D0200080D0200080D02000863
:100140000D0200080D0200080D0200080D02000853
:100150000D0200080D0200080D0200080D02000843
:100160000D0200080D0200080D0200080D02000833
:100170000D0200080D0200080D020008000000003A
:100180000D0200080D0200080D0200080D02000813
:100190000D0200080D0200080D0200080D02000803
:0C01A0000D0200080D0200080D0200080E
:1001AC00847E000800000020280000202800002089
:1001BC00DC000020DFF830D0002103E00B4B5B5853
:1001CC00435004310A480B4B42189A42F6D30A4A60
:1001DC0002E0002342F8043B084B9A42F9D300F0AA
:1001EC00A5F800F00FF8704700000320847E00088B
:1001FC00000000202800002028000020DC00002047
:10020C00FEE7000080B594B000F024F9002007F060
:10021C0061F8012007F05EF8324C334B002101915C
:10022C00226C42F080522264226C02F080520192C5
:10023C00019A02911A6842F440421A601B6803F456
:10024C0040430293012502274FF4800608214FF406
:10025C00B472072308A80F96DDF808E008950995F5
:10026C000E97129710911192139304F07BFB064694
:10027C00002832D104F0ECFF4FF00F0E4FF4A052D7
:10028C004FF4805303A8052105960497CDF80CE094
:10029C000692079304F08EFD0646D0B90390236BAB
:1002AC00124A134843F001032363236B099203F0B2
:1002BC00010308A90393039B0A96089500F0C0FA62
:1002CC0006203946324600F095F9062000F0C8F9B0
:1002DC00FEE7284607F03AF8FEE7284607F036F81E
:1002EC00FEE700BF00380240007000400000211003
:1002FC0000000240012800D07047002007F042B8EF
:10030C00704700BFFEE700BFFEE700BFFEE700BF7F
:10031C00FEE700BF704700BF704700BF704700BFCB
:10032C0000F0B2B8012000F0A1BC00BF1049114B85
:10033C00D1F8882042F4700210B4C1F888201A68F1
:10034C000D4C002042F001021A6098601A6822F0ED
:10035C00847222F480321A605C601A684FF0006478
:10036C0022F480221A60D8608C605DF8044B7047D0
:10037C0000ED00E00038024010300024184883687B
:10038C0003F00C03042B29D0082B0AD0154B144A6C
:10039C00154892681549C2F30312825CD3400B6076
:1003AC0070474368416813F4800F436818BF1048C6
:1003BC0001F03F020CBF0B49B0FBF2F1C3F3881301
:1003CC0008BFB1FBF2F101FB03F2054B5B68C3F311
:1003DC00014301335B00B2FBF3F3D8E7044BD6E7E0
:1003EC00003802400024F40000000020100000201F
:1003FC0000127A00704700BF704700BF10B5094B60
:10040C004FF0FF3200241A621C625A625C621A615D
:10041C001C615A615C619A619C61FFF7EDFF20469B
:10042C0010BD00BF00380240084B094A1B6810B5CC
:10043C00A2FB03230446980900F03CF921464FF037
:10044C00FF30002200F0D6F8002010BD1000002074
:10045C00D34D621008B50B4B1A6842F400721A6047
:10046C001A6842F480621A601A6842F480721A6048
:10047C00032000F0ADF80F20FFF7D6FFFFF7BAFF0F
:10048C00002008BD003C0240024A1368013313608F
:10049C00704700BF28000020014B1868704700BF50
:1004AC002800002010B582B00190FFF7F5FF04463C
:1004BC00FFF7F2FF019B001B9842F9D302B010BD6D
:1004CC00024A136823F002031360704710E000E047
:1004DC00024A136843F002031360704710E000E017
:1004EC000048704700020501014B1868000C70476A
:1004FC00002004E0024B1868C0F30B00704700BFEB
:10050C00002004E0024A536843F001035360704733
:10051C00002004E0024A536823F001035360704743
:10052C00002004E0024A536843F002035360704712
:10053C00002004E0024A536823F002035360704722
:10054C00002004E0024A536843F0040353607047F0
:10055C00002004E0024A536823F004035360704700
:10056C00002004E0012191FAA1F2034BB2FA82F2CD
:10057C0013449B001960704700C18910012292FA44
:10058C00A2F2044BB2FA82F213449B0000221A60CE
:10059C00704700BF00C189104FF4807393FAA3F326
:1005AC00B3FA83F303F1845303F51C239B0001225C
:1005BC001A6070474FF4807393FAA3F3B3FA83F382
:1005CC0003F1845303F51C239B0000221A6070472F
:1005DC00074AD1684FF6FF030B4043F0BF6300F0AE
:1005EC00070043F4003343EA0023D360704700BF95
:1005FC0000ED00E0184BDB68C3F3022330B4C3F109
:10060C000705042D03F1040428BF0425062C17D973
:10061C00033B01249C40013C22400124AC40013CA2
:10062C0021409940002842EA01020CDB00F16040B5
:10063C0000F561401201D2B280F8002330BC704743
:10064C0000221346E9E7054B00F00F0012010344AA
:10065C00D2B21A7630BC704700ED00E0FCEC00E042
:10066C0000F01F0101234009024A8B4042F8203060
:10067C00704700BF00E100E04309203300F01F0089
:10068C0001220249824041F82320704700E100E03A
:10069C00BFF34F8F0549064BCA6802F4E06213435F
:1006AC00CB60BFF34F8F00BFFDE700BF00ED00E054
:1006BC000400FA050138B0F1807F0ED2084B10B45B
:1006CC00084C5860F02084F82300002207211046C3
:1006DC009A6019605DF8044B70470120704700BFA9
:1006EC0010E000E000ED00E02DE9F041144D4378FE
:1006FC00AB6003781BB9EB602B61BDE8F0814368FC
:10070C00EB60C67A90F80C80427BC37B0478817ACC
:10071C0090F80EC090F809E0077A300640EA0870AD
:10072C00204340EAC14141EA824141EA4C4242EA5B
:10073C00034242EA0E2343EA47032B61BDE8F081F2
:10074C0090ED00E0024BD868C0F30220704700BF68
:10075C0000ED00E0002870B423DB00F1604000F5F0
:10076C00614090F80043240901F00701C1F107062C
:10077C00042E01F1040028BF042606280ED90339E3
:10078C0001258D40013D25400120B040CC40013871
:10079C0004EA000111601D6070BC704700252946F9
:1007AC00F2E7034C00F00F000444247E2409DBE73D
:1007BC00FCEC00E04309403300F01F000122024929
:1007CC00824041F82320704700E100E043094033A8
:1007DC00044A52F8232000F01F0322FA03F000F021
:1007EC000100704700E100E04309603300F01F0096
:1007FC0001220249824041F82320704700E100E0C9
:10080C0043098033044A52F8232000F01F0322FAD4
:10081C0003F000F00100704700E100E0044A1368A7
:10082C0004280CBF43F0040323F004031360704747
:10083C0010E000E0704700BF08B5FFF7FBFF08BDF4
:10084C002DE9F04F85B00F68DFF85CE2DFF85CC291
:10085C008E4E0197002303E00133102B00F0AA8089
:10086C000122019C9A4014409442F5D14D6825F028
:10087C00100ABAF1020F00F0A0804FEA43090322DC
:10088C00D0F800B002FA09F2D24305F0030802EAEC
:10089C000B0B08FA09F80AF1FF3A4BEA0808BAF10F
:1008AC00010FC0F8008040F2B180D0F80C808F6846
:1008BC0002EA080207FA09F842EA0802C260EA00F2
:1008CC00CAD54FF0000ACDF80CA0DEF8442042F453
:1008DC008042CEF84420DEF8448023F0030202F17B
:1008EC00804208F4804802F59C32CDF80C8003F06D
:1008FC000308DDF80C90D2F808B04FEA88084FF0E6
:10090C000F0909FA08F960452BEA09092BD0604F49
:10091C00B84200F093805F4FB84200F094805E4F75
:10092C00B84200F095805D4FB84200F096805C4F65
:10093C00B84200F097805B4FB84200F09880DFF827
:10094C0070A1504500F09880DFF868A1504500F088
:10095C009880DFF864A150450CBF4FF0090A4FF0A6
:10096C000A0A0AFA08FA4AEA090AC2F808A032681E
:10097C006FEA0408EF034CBF224308EA020232601C
:10098C007268AF034CBF224308EA02027260B2687D
:10099C00EF024CBF224308EA0202B260F268AD02D9
:1009AC0003F1010354BF08EA02041443102BF46052
:1009BC007FF456AF05B0BDE8F08F4FEAD30900EBDA
:1009CC00890903F00708D9F820204FEA88084FF06E
:1009DC000F0A0AFA08FA22EA0A0A0A6902FA08F263
:1009EC004AEA0202C9F820204FEA43090322D0F850
:1009FC0000A002FA09F2D24305F0030802EA0A0A3F
:100A0C0008FA09F84AEA0808C0F80080D0F808800B
:100A1C00CF6802EA080A07FA09F84AEA0808C0F897
:100A2C000880D0F804A0C5F300182AEA040A08FAD2
:100A3C0003F84AEA0808C0F8048036E74FF0010AC8
:100A4C000AFA08FA8FE74FF0020A0AFA08FA8AE75C
:100A5C004FF0030A0AFA08FA85E74FF0040A0AFA7B
:100A6C0008FA80E74FF0050A0AFA08FA7BE74FF01C
:100A7C00060A0AFA08FA76E74FF0070A0AFA08FAA1
:100A8C0071E74FF0080A0AFA08FA6CE7003C0140DB
:100A9C000004024000080240000C0240001002401A
:100AAC0000140240001802400038024000000240CE
:100ABC00001C024000200240002402402DE9F04FAF
:100ACC00DFF850C1DFF85081DFF850918B460023DE
:100ADC0002E00133102B71D0012404FA03F101EA76
:100AEC000B028A42F5D14FF0030E03FA04F10568AC
:100AFC000EFA01F6F64323FA0EF1354000EB8101B4
:100B0C00056003F00707D1F820A00F25BF0005FAF8
:100B1C0007F72AEA07070F62816831408160416854
:100B2C00D24311404160C76823F0030101F18041B9
:100B3C003E4001F59C31C66003EA0E078E68BF008B
:100B4C00BD40404506EA05063DD0484539D0294C04
:100B5C00A0423AD0284CA0423AD0284CA0423AD0DD
:100B6C00274CA0423AD0274CA0423AD0264CA04267
:100B7C003AD0264CA0423AD0254CA04220D00A2490
:100B8C00BC40A642A5D18C6824EA05058D60DCF832
:100B9C0000101140CCF80010DCF804101140CCF817
:100BAC000410DCF808101140CCF80810DCF80C101C
:100BBC0001330A40102BCCF80C208DD1BDE8F08FFE
:100BCC000924BC40DDE70024DBE70224BC40D8E765
:100BDC000EFA07F4D5E70424BC40D2E70524BC4048
:100BEC00CFE70624BC40CCE70724BC40C9E7082467
:100BFC00BC40C6E700080240000C02400010024056
:100C0C000014024000180240001C02400020024068
:100C1C0000240240003C014000000240000402405D
:100C2C000369194214BF01200020704702B909045E
:100C3C0081617047436959404161704782B04FF4FC
:100C4C0080330193019B0B430193019BC361C161F1
:100C5C00019BC361C3690193C06980F48030C0F308
:100C6C00004002B0704700BF704700BF044A516992
:100C7C00084208B502D05061FFF73CFB08BD00BF2D
:100C8C00003C0140F8B504460D461646691C236825
:100C9C0003D008E05A6952051CD45869C04310F0BF
:100CAC000200F7D1F8BD5869C04310F00200F9D02A
:100CBC005A6950050ED425B1FFF7EEFB801B854217
:100CCC00E4D200232022236384F83C3084F83D20B6
:100CDC000320F8BD1A6800216FF4806742F400729B
:100CEC00042620251A6001205F61266484F83C10DC
:100CFC00216384F83D50F8BD2DE9F04105460068AC
:100D0C0082B00668089C884646F480711F461646D9
:100D1C000160621C40D14369DB07FCD508F0FE0181
:100D2C000161631C14D043699B0714D443695A05B1
:100D3C003ED4002C00F09780FFF7AEFB099BC01A45
:100D4C008442C0F090802868EBE743695A052FD4A1
:100D5C0043699907F9D5002301934369019383698A
:100D6C000193019B621C67D1024643691B064AD45E
:100D7C0043695905F9D500236FF4806404212022BE
:100D8C004461296485F83C302B6385F83D202B6C3D
:100D9C00042B30D0032020E04369D907BED4FCB12A
:100DAC00FFF77AFB099BC01A844219D32868B0E775
:100DBC00036800226FF4806643F40073042420213E
:100DCC00036046612C6485F83C202A6385F83D104D
:100DDC002B6C042B0CBF0120032002B0BDE8F0816A
:100DEC00002320222B6385F83C3085F83D2003201E
:100DFC0085F83E30F1E72A68136843F400731360FA
:100E0C000120EAE70246012F29D0330A0361671C4F
:100E1C0031D1536918061ED453695905F9D50023ED
:100E2C006FF48064042020215461286485F83C30E0
:100E3C002B6385F83D10AAE743691A06E2D443698F
:100E4C00590598D434B3FFF727FB099BC01A844289
:100E5C0020D3286886E7F6B216610020BDE7F6B20B
:100E6C0006610020B9E7002320222B6385F83C3073
:100E7C0085F83D20ACE753691B06ECD453695B0540
:100E8C00CDD43CB1FFF708FB099BC01A844201D3B7
:100E9C002A68BCE72B6C002243F0200320212B6432
:100EAC0085F83C202A6385F83D1070E72DE9F04267
:100EBC00054600688946016841F48061016001685B
:100ECC0082B041F48071089C016016461F46631C79
:100EDC0034D102464369D907FCD55FFA89F909F088
:100EEC00FE030361611C35D1114602E053695805BC
:100EFC0043D453699B07F9D500230193536901939C
:100F0C0093690193019B631C7BD14B6918065DD4DB
:100F1C004B695A05F9D500236FF480640420202214
:100F2C004C61286485F83C302B6385F83D202B6C94
:100F3C00042B42D0032002B0BDE8F0824369DB07EA
:100F4C0042D47CB3FFF7A8FA099BC01A844229D378
:100F5C002868BCE75369990700F1BA8053695805B2
:100F6C000BD4002C00F09D80FFF796FA099BC01A59
:100F7C008442C0F096802A68B4E7136800216FF4AD
:100F8C00806643F4007304242020136056612C64A3
:100F9C0085F83C10296385F83D002B6C042BC9D1D6
:100FAC000120C8E7002320222B6385F83C3085F80C
:100FBC003D20032085F83E30BDE72A68136843F4D2
:100FCC00007313600120B6E7024686E7012F0B463B
:100FDC0027D1F6B20E61611C2ED119465A69120640
:100FEC003ED45A695705F9D500226FF48064042069
:100FFC0020215C61286485F83C202A6385F83D102B
:10100C0095E74B691B06E1D44B695A0583D4002C38
:10101C0060D0FFF741FA099BC01A84425AD3296861
:10102C0071E7320A0A61601C43D15A69110613D464
:10103C005A695205D8D4F8E75A6916060FD45A697A
:10104C005005D1D4002C45D0FFF726FA099BC01AC5
:10105C0084423FD32B68BEE7F6B21E61BBE719464C
:10106C001A6842F480721A60601C0DD14B69DA0761
:10107C00FCD549F001030B61099A21462846FFF77C
:10108C0001FE002889D156E74B69DB07F1D4002C0F
:10109C0088D0FFF701FA099BC01A844282D32968D1
:1010AC00E2E7002320222B6385F83C3085F83D20B5
:1010BC0073E75A691706CFD45A69570594D44CB1C3
:1010CC00FFF7EAF9099BC01A844203D32B68AAE7FD
:1010DC00114611E72B6C002243F0200320212B64D6
:1010EC0085F83C202A6385F83D1020E7704700BF47
:1010FC0000286CD0F8B590F83D30044603F0FF02A0
:10110C00002B4FD02268334D242384F83D301368D4
:10111C0023F00103136003F009FF2F4A6168236871
:10112C00A2FB0062920CA9425A6026D84900B0FB7F
:10113C00F1F0C0F30B01013203291A6298BF0420AD
:10114C0004F1100146C9E569D4F820E0E768D861DC
:10115C0039434EEA0500324318609960DA60196829
:10116C00002241F00101202519601046226484F808
:10117C003D50226384F83E20F8BD4FF49675174F0E
:10118C00A66805FB02F2A7FB0252920901321A6211
:10119C006EB901EB4101B0FBF1F0C0F30B029AB94F
:1011AC000120CDE780F83C20FFF7A0FFAAE701EB78
:1011BC00810101EB8101B0FBF1F0C0F30B02002ABD
:1011CC00EED040F44040BBE740F40040B8E70120CB
:1011DC00704700BFA086010083DE1B43D34D621015
:1011EC00704700BFB0B10268242310B580F83D30C1
:1011FC00136823F0010304461360FFF7F1FF00238B
:10120C00236484F83C3084F83D301846236384F81A
:10121C003E3010BD012070472DE9F043044683B0E9
:10122C001E4688461746FFF737F994F83D30202BB9
:10123C0081460AD0022003B0BDE8F083FFF72CF9F9
:10124C00C9EB0000192800F2AB8022689369DB43DC
:10125C0013F00205F2D094F83C30012B1146E9D082
:10126C0013680120DB0784F83C0002D413680343A5
:10127C0013601368A24823F400634FF0210C4FF065
:10128C00100E0025136084F83DC084F83EE0256400
:10129C006685E062608DE36A6762042B208500F04E
:1012AC00BD80012B00F0BA8013F5803F00F0B680B2
:1012BC00236B122B00F0B2800A9B013340F09E800E
:1012CC004B69DF07FCD52369B3F5804F40F0D38021
:1012DC0008F0FE030B610A9B013340F0EC800B46D7
:1012EC0003E04A69520500F19E804A699007F8D5DF
:1012FC00002201924A6901928A690192019A228D17
:10130C00002A00F0AB800A9A013253D15A691006B8
:10131C0014D45A695105F9D500226FF48065042064
:10132C0020215D61206484F83C20226384F83D1008
:10133C00236C042B00F0F08003207CE7606A258D81
:10134C00411C616201781961618D013989B2618535
:10135C0059696F1E27854F071A460AD54EB1811C55
:10136C00616241781961638D013B023D9BB2258519
:10137C0063850A9B01332FD1134651694807BED4AC
:10138C0051694905F9D500236FF4806504202021AB
:10139C005561206484F83C30236384F83D10C7E722
:1013AC002023256384F83C5084F83D30022084F8D7
:1013BC003E5040E75A691206C0D45A695505ABD461
:1013CC000A9B002B6BD0FFF767F80A9BC9EB000058
:1013DC00834264D3236896E753695B077CD45369D3
:1013EC005D05D0D40A9B002B59D0FFF755F80A9B0A
:1013FC00C9EB0000834252D32268BAE74B69DD0780
:10140C003FF561AF0A9B002B7CD0FFF745F80A9B98
:10141C00C9EB0000834275D321684DE7136843F490
:10142C008073136048E70B6800226FF4806643F406
:10143C000073042520200B604E61256484F83C2049
:10144C00226384F83D00236C236C042B4FF00003C3
:10145C0084F83C307FF470AF0120ECE6196820254D
:10146C0041F400711960104684F83D5084F83C201A
:10147C0084F83E20DFE608F44073DB1143F0F00300
:10148C000B610A9B013303D028E04B695B05CAD47E
:10149C004B691A07F9D55FFA88F30B611BE7236CCC
:1014AC00002243F020032021236484F83C20226393
:1014BC0084F83D103CE74B699F073BD44B695D05B5
:1014CC00B1D40A9B73B3FEF7E7FF0A9BC9EB00008C
:1014DC00834227D32168FEE6134610E74B691F07AA
:1014EC00D9D44B6958059ED40A9BDBB1FEF7D4FFC7
:1014FC000A9BC9EB0000834214D32168C1E700BFEB
:10150C000000FFFF00232022236384F83C3084F882
:10151C003D2084F83E3097E72268136843F400734B
:10152C00136099E700232022236384F83C3084F86D
:10153C003D2088E70B46DBE62DE9F047824686B076
:10154C009846894617460E9DFEF7A6FF9AF83D3041
:10155C00202B064609D0022006B0BDE8F087FEF726
:10156C009BFF801B192800F22A81DAF8002093696E
:10157C00DB4313F00204F2D09AF83C30012B1146F5
:10158C00E9D013680120DB078AF83C0002D4136809
:10159C00034313601368BA4823F4006300244FF02C
:1015AC00220C4FF0100E13608AF83DC08AF83EE012
:1015BC00CAF84040AAF82A80CAF82C00BAF82A4087
:1015CC00DAF82C001368CAF8247043F480630428FA
:1015DC00AAF82840136000F04D81012800F04A81E0
:1015EC0010F5803F00F04681DAF83030112B00F016
:1015FC0041816C1C40F02E810A464B69D807FCD502
:10160C00DAF81030B3F5804F40F05C8149F00103FB
:10161C00DBB20B616F1C04D09BE15369580500F1E0
:10162C00758153699C07F8D5BAF82830002B40F027
:10163C002F8101935169019191690191019911686F
:10164C0041F400711160002B00F03381032B00F288
:10165C008680012B00F0E780022B58D06F1CDAF843
:10166C0000205CD153695C07FCD51368DAF82410B0
:10167C0023F48063136013694A1CCAF824200B708E
:10168C00BAF82A30BAF82820013B9BB2013AAAF8E2
:10169C002A30AAF82820691CDAF8002054D15369A2
:1016AC005B07FCD51368DAF8241043F4007313605D
:1016BC0013694A1CCAF824200B70BAF82A30BAF8FD
:1016CC002820DAF82400DAF80010013B9BB2AAF8C3
:1016DC002A300969531E421CAAF82830CAF8242063
:1016EC000170BAF82830BAF82A20013B013A9BB2B3
:1016FC0092B2AAF82830AAF82A20A4E753695B070B
:10170C00D0D4ADB1FEF7C8FE801B854210D3681C47
:10171C00DAF80020F2D153695907FCD5C2E75369B6
:10172C005807A2D425B1FEF7B7FE801B854295D28F
:10173C0000232022CAF830308AF83C308AF83D2049
:10174C0003208AF83E3007E753695F07AAD4002DBF
:10175C00EED0FEF7A1FE801B85429CD2E8E745B98E
:10176C0038E05A69D00650D4FEF796FE801B8542AD
:10177C0038D3DAF800305A695406F2D5DAF8242056
:10178C001B69511CCAF824101370BAF82A30DAF805
:10179C000010BAF82820013B9BB2AAF82A304869FD
:1017AC00531E9BB24207AAF828307FF54CAFDAF8EB
:1017BC0024300A69591CCAF824101A7091E72023A6
:1017CC00CAF830408AF83C408AF83D3002208AF84A
:1017DC003E40C1E6DAF800305A695106CED45A6957
:1017EC00D50612D4DAF84030202213430021CAF86F
:1017FC0040308AF83C108AF83D20DAF84030202B33
:10180C0001D00120A8E60320A6E600226FF010000C
:10181C0020215861CAF840208AF83C20CAF83020B0
:10182C008AF83D10E9E745B92CE05A69D706ECD4A3
:10183C00FEF732FE801B8542D4D3DAF800305A69A9
:10184C005206F2D5DAF824201B69511CCAF8241070
:10185C00137046E74B69DB0700F1BA80002D00F0EE
:10186C009D80FEF719FE801B8542C0F09780DAF848
:10187C000010BEE6136843F480731360B9E600BF32
:10188C000000FFFFDAF800305A695406A7D5D9E7F3
:10189C00012B116873D0022B00F08B8041F4806116
:1018AC000020116004905169049192690492049A89
:1018BC00C9E620228AF83D208AF83C3018468AF87E
:1018CC003E3049E609F44074E40944F0F0030B613E
:1018DC00681C03D02DE053695B0517D453691907B5
:1018EC00F9D55FFA89F31361504629463246FFF762
:1018FC00C9F900286ED0DAF84030DAF84030042B01
:10190C0038D000238AF83C30032025E613680021E8
:10191C006FF4806543F40073042420201360556138
:10192C00CAF840408AF83C10CAF830108AF83D00DA
:10193C00E1E753691F07D4D453695F05E6D4002D42
:10194C006BD0FEF7A9FD801B854266D3DAF8002028
:10195C00BEE7536999073FF567AE53695B05D5D46C
:10196C00002D5AD0FEF798FD801B854255D3DAF82E
:10197C0000204FE600238AF83C300120ECE521F4EE
:10198C00806100201160029051690291916902916D
:10199C000299116841F40071116054E60023202271
:1019AC00CAF830308AF83C308AF83D208AF83E304C
:1019BC00A3E721F4806111601168002041F40061FB
:1019CC00116003905169039192690392039A3AE66C
:1019DC000A4615E6DAF8003005905A6905929A69BC
:1019EC000592059A1A6842F480721A60681C07D135
:1019FC005A69D107FCD544F0F1041A461C6109E67A
:101A0C005A69D207F7D4002DC8D0FEF745FD801BCC
:101A1C008542C3D3DAF80030E8E700232022CAF865
:101A2C0030308AF83C308AF83D2064E72DE9F041EB
:101A3C00044682B01D460E461746FEF72DFD94F85F
:101A4C003D30202B03D0022002B0BDE8F081002EE7
:101A5C0059D0002F57D094F83C30012BF3D021688B
:101A6C000B6880460122D80784F83C2002D40B680E
:101A7C0013430B600B686B4A23F400634FF0210C8B
:101A8C004FF0200E00200B6084F83DC084F83EE03F
:101A9C0020646785E262628D0B68666243F4806342
:101AAC0022850B606B1C40F0A2800B464A6997079D
:101ABC00FCD5002200924A69009222698869009044
:101ACC00B2F5404F00984DD0228D52B3681C73D1A3
:101ADC005A69110654D45A695205F9D500226FF48B
:101AEC008065042020215D61206484F83C20226301
:101AFC0084F83D101A6822F480621A60236C042B5F
:101B0C0001D00320A0E701209EE75A6952050DD4AD
:101B1C00002D78D0FEF7C0FCC8EB0000854272D3D4
:101B2C002368681CF1D15A695105FCD56FF48062A9
:101B3C005A6119682025114000221960104684F85A
:101B4C003D5084F83C2084F83E207DE74B699F078C
:101B5C0066D4002D57D0FEF79FFCC8EB00008542E1
:101B6C0051D32168681CF1D10B464A699207FCD508
:101B7C00002201924A6901928A690192019AA3E7B3
:101B8C00616A208D4A1C62620A781A61628D013A80
:101B9C0092B262855E69421E92B27607228594D516
:101BAC008A1C62624A781A61618D821E013992B276
:101BBC0089B22285618588E75A691706E0D45A698B
:101BCC0056058BD43DB1FEF767FCC8EB000085428F
:101BDC002368BFF47BAF226C002142F0200220204E
:101BEC00226484F83C10216384F83D0082E74B6941
:101BFC009E0713D43DB1FEF74FFCC8EB00008542A5
:101C0C0001D321684EE700232022236384F83C3063
:101C1C0084F83D20032084F83E3015E70B4648E756
:101C2C000B46A5E70000FFFF2DE9F043044683B007
:101C3C001D460F469046FEF72FFC94F83D30202BA6
:101C4C0003D0022003B0BDE8F083002F6DD0B8F1B3
:101C5C00000F6AD094F83C30012BF2D02268116846
:101C6C000646C9074FF00100134684F83C0002D425
:101C7C001168014311601168754821F400614FF03F
:101C8C0022094FF0200C4FF0000E116084F83D90AB
:101C9C0084F83EC0C4F840E0A4F82A80E062608D6D
:101CAC001168676241F4806120851160681C59D10C
:101CBC0051698907FCD50021009151690091916906
:101CCC0000910099218D002968D04DB92FE05A69F7
:101CDC00D00654D4FEF7E0FB801B85425CD323680E
:101CEC005A695706F3D5626A1B69511C61621370FD
:101CFC00628D2368218D013A92B26285586901394F
:101D0C0089B2400721851A46DDD5626A1B69511CD0
:101D1C0061621370218D628D23680139013A92B290
:101D2C0089B2628521851A46CDE701208AE751697F
:101D3C004906D8D45169C80621D4236C20210B4301
:101D4C000020236484F83C0084F83D10136823F4CD
:101D5C0080631360236C202B0CBF0320012003B085
:101D6C00BDE8F08351698F07A5D4002D50D0FEF744
:101D7C0093FB801B85424BD32268134696E70021C8
:101D8C006FF0100220205A6121641A46216384F8F6
:101D9C003C1084F83D00D9E72268CEE7002D42D0F4
:101DAC005A69D2061ED45A69570514D500226FF40D
:101DBC008065042020215D61206484F83C2022632E
:101DCC0084F83D101A6822F480621A60236C042B8C
:101DDC00ABD0032036E7FEF75FFB801B854235D383
:101DEC002368DDE70022019259690191196841F0DD
:101DFC000101196001991968202521F4806119608D
:101E0C00104684F83D5084F83C2084F83E2019E7B5
:101E1C0000232022236384F83C3084F83D200320E7
:101E2C0084F83E300EE75169CD06DBD45169490583
:101E3C00BCD4216C002041F02001202521641346E4
:101E4C00206384F83C0084F83D50BBE72268F0E73F
:101E5C000000FFFFF0B583B00024019490F83D40E2
:101E6C00202C02D0022003B0F0BD264C264D246855
:101E7C00E408A5FB0454240A04EB840404EB840456
:101E8C00019403E00468A569AE070CD5019C651E9E
:101E9C000195002CF6D12023046380F83C4080F897
:101EAC003D300320DFE790F83C50012DDAD0256857
:101EBC000126ED0780F83C6002D425683543256087
:101ECC002668124F002526F400664FF0210C4FF0C7
:101EDC00100E266080F83DC080F83EE00564438516
:101EEC00C762468D41642368426243F48073068561
:101EFC002360636880F83C5043F4E06328466360D9
:101F0C00B1E700BF1000002089B5F8140000FFFFF6
:101F1C00F0B583B00024019490F83D40202C02D001
:101F2C00022003B0F0BD284C284D2468E408A5FB22
:101F3C000454240A04EB840404EB8404019403E0A9
:101F4C000468A569AE070CD5019C651E0195002C93
:101F5C00F6D12023046380F83C4080F83D30032008
:101F6C00DFE790F83C50012DDAD025680126ED070B
:101F7C0080F83C6002D42568354325602668144FF0
:101F8C00002526F400664FF0220C4FF0100E266050
:101F9C0080F83DC080F83EE005644385C762468DFD
:101FAC0041642368426243F480630685236023689E
:101FBC0043F480732360636880F83C5043F4E0631F
:101FCC0028466360ADE700BF1000002089B5F81407
:101FDC000000FFFFF0B583B000240094019490F84A
:101FEC003D40202C02D0022003B0F0BD089C042CF4
:101FFC003BD0012C39D090F83C40012CF3D0046834
:10200C0025680126ED0780F83C6002D4256835432D
:10201C00256025684FF0210E25F400651027002659
:10202C00256080F83DE080F83E7006644385089B8F
:10203C00C362458D4164036B0093009B4262122B7B
:10204C00058501D0009B3BB9089B042B2BD0012BA1
:10205C0029D0009B122B26D06268002342F4E06248
:10206C0080F83C3018466260BEE7114C114D246874
:10207C00E408A5FB0454240A04EB840404EB840454
:10208C00019403E00468A469A607B4D5019C651EFD
:10209C000195002CF6D12023046380F83C4080F895
:1020AC003D300320A0E7236843F480732360D3E71B
:1020BC001000002089B5F814F0B583B00024019409
:1020CC0090F83D40202C02D0022003B0F0BD089CBB
:1020DC00042C3CD0012C3AD090F83C40012CF3D08D
:1020EC00046825680126ED0780F83C6002D4256859
:1020FC003543256025684FF0220E25F40065102726
:10210C000026256080F83DE080F83E70066443852B
:10211C00089BC362458D4164036B4262112B05859C
:10212C0001D0036B53B9089B042B2ED0012B2CD060
:10213C0013F5803F29D0036B112B26D06268002346
:10214C0042F4E06280F83C3018466260BDE7134C04
:10215C00134D2468E408A5FB0454240A04EB8404FE
:10216C0004EB8404019403E00468A469A607B3D5C6
:10217C00019C651E0195002CF6D12023046380F888
:10218C003C4080F83D3003209FE7236843F4806394
:10219C002360236843F480732360CFE71000002092
:1021AC0089B5F814F0B583B00023019390F83D3055
:1021BC00202B02D0022003B0F0BDF1B1EAB1264BC6
:1021CC00264C1B68DB08A4FB03431B0A03EB8303AD
:1021DC0003EB8303019303E003689C69A5070ED509
:1021EC00019B5C1E0194002BF6D12022036380F826
:1021FC003C3080F83D200320DDE70120DBE790F840
:10220C003C40012CD6D01C680125E40780F83C50DA
:10221C0002D41C682C431C601D68114E002425F44C
:10222C0000654FF0210E20271D6080F83DE080F8FE
:10223C003E7004644285C662458D1A68416242F460
:10224C00806205851A605A6880F83C4042F4E0626E
:10225C0020465A60AFE700BF1000002089B5F81483
:10226C000000FFFFF0B583B00023019390F83D30E0
:10227C00202B02D0022003B0F0BDF1B1EAB1254B06
:10228C00254C1B68DB08A4FB03431B0A03EB8303ED
:10229C0003EB8303019303E003689C69A5070ED548
:1022AC00019B5C1E0194002BF6D12022036380F865
:1022BC003C3080F83D200320DDE70120DBE790F87F
:1022CC003C40012CD6D01C680125E40780F83C501A
:1022DC0002D41C682C431C601D68104E002425F48D
:1022EC0000654FF0220E20271D6080F83DE080F83D
:1022FC003E7004644285C6621D68416245F480618B
:10230C00028519605A6880F83C4042F4E06220462D
:10231C005A60B0E71000002089B5F8140000FFFFE8
:10232C00F0B590F83D40282C83B002D0022003B0C9
:10233C00F0BD00292FD0002A2DD090F83C40012C64
:10234C00F4D005682C680126E40780F83C6002D4C0
:10235C002C6834432C602E6800244FF0290E26F490
:10236C00006620272E6080F83DE080F83E70046403
:10237C004285C362428D01946B690193AB690193F1
:10238C00019B6B68416243F4E063028580F83C403A
:10239C0020466B60CBE70120C9E700BFF0B590F891
:1023AC003D40282C83B002D0022003B0F0BD0029A0
:1023BC002FD0002A2DD090F83C40012CF4D0056889
:1023CC002C680126E40780F83C6002D42C68344366
:1023DC002C602E6800244FF02A0E26F4006620276D
:1023EC002E6080F83DE080F83E7004644285C36244
:1023FC00428D01946B690193AB690193019B6B68EE
:10240C00416243F4E063028580F83C4020466B60F7
:10241C00CBE70120C9E700BF90F83D30202B01D05D
:10242C00022070472822036880F83D201A68D207E2
:10243C0003D41A6842F001021A601A6842F48062EE
:10244C001A605A6842F440725A600020704700BF0C
:10245C0090F83D30282B01D00220704790F83D3089
:10246C0090F83E20016803F0030310B41A432024B3
:10247C000023026380F83D4080F83E300A685DF826
:10248C00044B22F480620A604A6822F440721846B7
:10249C004A607047F0B583B004460020019094F870
:1024AC003D00202802D0022003B0F0BD3B483C4D3B
:1024BC000068C008A5FB0050000A00EB800000EB90
:1024CC008000019003E02568A86986070CD5019867
:1024DC00451E01950028F6D12023206384F83C008A
:1024EC0084F83D300320DFE794F83C000128DAD073
:1024FC0028680126C00784F83C6002D42868304361
:10250C0028602868274F20F400604FF0210C4FF012
:10251C00100E0026286084F83DC084F83EE0266446
:10252C006385E762638D626298B2208561640346BD
:10253C0070B92A6842F480622A602A6842F4807278
:10254C002A606A6884F83C0042F4E0626A60ABE797
:10255C00606BDFF858E0144F06641146466405F1D1
:10256C00100286640665C0F83CE0C76401F008FF01
:10257C0023681A6842F480621A601A6842F4807206
:10258C001A605A6884F83C6042F440725A605A6887
:10259C0042F4006230465A6086E700BF100000200B
:1025AC0089B5F8140000FFFF613400088D34000871
:1025BC00F0B583B004460020019094F83D0020282B
:1025CC0002D0022003B0F0BD3A483B4D0068C00871
:1025DC00A5FB0050000A00EB800000EB800001908E
:1025EC0003E02568A86986070CD50198451E01955E
:1025FC000028F6D12023206384F83C0084F83D3079
:10260C000320DFE794F83C000128DAD02868012683
:10261C00C00784F83C6002D42868304328602868DE
:10262C00264F20F400604FF0220C4FF0100E0026C5
:10263C00286084F83DC084F83EE026646385E76238
:10264C00638D626298B220856164034670B92A6812
:10265C0042F480622A602A6842F480722A606A68B6
:10266C0084F83C0042F4E0626A60ABE7A06BDFF8F0
:10267C0054E0134F066405F1100146648664066548
:10268C00C0F83CE0C76401F07BFE23681A6842F492
:10269C0080621A601A6842F480721A605A6884F870
:1026AC003C6042F440725A605A6842F40062304610
:1026BC005A6087E71000002089B5F8140000FFFF6E
:1026CC00613400088D3400082DE9F04182B00023FC
:1026DC00019390F83D30202B044603D0022002B029
:1026EC00BDE8F081F1B1EAB1314B32481B68DB082F
:1026FC00A0FB03031B0A03EB830303EB830301938C
:10270C0003E02368986985070ED5019B581E01903C
:10271C00002BF6D12022236384F83C3084F83D2032
:10272C000320DCE70120DAE794F83C000128D5D03F
:10273C0018680125C00784F83C5002D41868284357
:10274C0018601D68606BDFF874C0DFF874E01A4F16
:10275C001E4625F4006346F8103B002520234FF05D
:10276C00210884F83D8084F83E3025646285C4F8E5
:10277C002CC0638D61629BB223853246056445642F
:10278C0085640565C0F83CE0C76401F0F9FD236879
:10279C001A6842F480621A605A6884F83C5042F419
:1027AC0040725A605A6842F4006228465A6096E7B2
:1027BC001000002089B5F814613400080000FFFFF8
:1027CC008D3400082DE9F04182B00023019390F87C
:1027DC003D30202B044603D0022002B0BDE8F0812E
:1027EC000E46F1B1EAB1314B31491B68DB08A1FB54
:1027FC0003131B0A03EB830303EB8303019303E033
:10280C0021688B6998070ED5019B591E0191002BED
:10281C00F6D12022236384F83C3084F83D20032039
:10282C00DBE70120D9E794F83C30012BD4D00B68BE
:10283C000120DB0784F83C0002D40B6803430B60D7
:10284C000B68A06BDFF870C0DFF870E0194F23F451
:10285C00006341F8103B002520234FF0220884F838
:10286C003D8084F83E3025646285C4F82CC0638DAD
:10287C0066629BB2238532460564456485640565B2
:10288C00C0F83CE0C76401F07BFD23681A6842F491
:10289C0080621A605A6884F83C5042F440725A6064
:1028AC005A6842F4006228465A6096E710000020ED
:1028BC0089B5F814613400080000FFFF8D3400085E
:1028CC002DE9F047054682B098460E461746BDF8EE
:1028DC002C90FDF7E1FD95F83D30202B82460BD076
:1028EC000226304602B0BDE8F087FDF7D5FDCAEBF5
:1028FC000000192800F28B802A689369DB4313F0DF
:10290C000204F2D095F83C30012BE9D01368012178
:10291C00DB0785F83C1002D413680B431360136873
:10292C005B4923F400634FF0210E40200024136018
:10293C0085F83DE085F83E002C64A5F82A90E96204
:10294C0031460C9E688D0A9B6B623A468DE84004BA
:10295C00434628852846FEF7CFF90646002871D154
:10296C002B682A8D002A2AD00C9A013259D15A6927
:10297C0010062ED45A695105F9D500226FF48064E3
:10298C00042020215C61286485F83C202A6385F8AA
:10299C003D102B6C042B75D00326A2E75A69520705
:1029AC0057D45A695405E8D40C9B002B5ED0FDF724
:1029BC0073FD0C9BCAEB0000834257D32B680C9A17
:1029CC000132EBD15A69500743D45A695105D4D41A
:1029DC00F8E7686A2C8D421C6A6202781A61698D6C
:1029EC00013989B269855969621E92B24F072A85ED
:1029FC00B8D5002AE3D0821C6A6242781A61698DCC
:102A0C00A21E013992B289B22A856985AAE72023D0
:102A1C002C6385F83C4085F83D30022685F83E4015
:102A2C005FE75A691206D4D45A695405A5D40C9B95
:102A3C00E3B1FDF731FD0C9BCAEB0000834215D3CB
:102A4C002B6891E72B6C85F83C40042BA4D1012614
:102A5C0047E71A680021202042F400721A6085F8BA
:102A6C003D0085F83C1085F83E103AE72B6C0022AF
:102A7C0043F0200320212B6485F83C202A6385F841
:102A8C003D1086E72A68136843F400731360DEE791
:102A9C000000FFFF2DE9F04F824687B099460F46A4
:102AAC009046BDF84460129DFDF7F6FC9AF83D3057
:102ABC00202B044609D00227384607B0BDE8F08F1A
:102ACC00FDF7EAFC001B192841D8DAF800209369BD
:102ADC00DB4313F0020BF3D09AF83C30012BEAD015
:102AEC0013680121D8078AF83C1002D413680B43F1
:102AFC0013601368B54923F400634FF0220E402095
:102B0C004FF0000B13608AF83DE08AF83E00CAF8DB
:102B1C0040B0AAF82A60CAF82C10BAF82A00109B08
:102B2C00CAF824303946009501944246AAF8280088
:102B3C004B465046FEF7BAF9074698B1DAF84030E2
:102B4C008AF83CB0042B00F0F2800327B4E7202372
:102B5C00CAF830B08AF83CB08AF83D3002278AF8BF
:102B6C003EB0A9E7BAF82830DAF80020002B40F084
:102B7C000B8102935169029191690291029911683A
:102B8C0041F400711160002B00F00981032B00F25D
:102B9C008680012B00F0DB80022E58D0691CDAF8FD
:102BAC0000205CD153695B07FCD51368DAF824105C
:102BBC0023F48063136013694A1CCAF824200B7039
:102BCC00BAF82A30BAF82820013B9BB2013AAAF88D
:102BDC002A30AAF82820691CDAF8002054D153694D
:102BEC005B07FCD51368DAF8241043F40073136008
:102BFC0013694A1CCAF824200B70BAF82A30BAF8A8
:102C0C002810DAF82400DAF80020013B9BB2AAF86D
:102C1C002A3012694B1E411CAAF82830CAF824101D
:102C2C000270BAF82830BAF82A20013B013A9BB25C
:102C3C0092B2AAF82830AAF82A20A4E753695807B8
:102C4C00D0D4ADB1FDF728FC001B854210D3691C14
:102C5C00DAF80020F2D153695B07FCD5C2E753695F
:102C6C005807A2D425B1FDF717FC001B854295D25D
:102C7C0000232022CAF830308AF83C308AF83D20F4
:102C8C0003278AF83E3017E753695807AAD4002D5A
:102C9C00EED0FDF701FC001B85429CD2E8E745B95C
:102CAC002DE05A69D00644D4FDF7F6FB001B854293
:102CBC002DD3DAF800305A695206F2D5DAF824200E
:102CCC001B69511CCAF824101370BAF82A30DAF8B0
:102CDC000010BAF82820013B9BB2AAF82A304869A8
:102CEC00531E9BB24207AAF828307FF54CAFDAF896
:102CFC0024300A69591CCAF824101A7091E7DAF8C2
:102D0C0000305A695106D9D45A69D10611D4DAF86F
:102D1C004030202213430021CAF840308AF83C107E
:102D2C008AF83D20DAF84030202B3FF40EAF012713
:102D3C00C2E600226FF0100020215861CAF8402032
:102D4C008AF83C20CAF830208AF83D10EAE745B9E9
:102D5C0014E05A69D206ECD4FDF79EFB001B8542A9
:102D6C00D5D3DAF800305A695106F2D5DAF82420B6
:102D7C001B69511CCAF82410137052E7DAF80030A2
:102D8C005A695006C0D5F1E7012B10D0022B1FD089
:102D9C0005905169059192690592059AF3E62022F6
:102DAC008AF83D208AF83C308AF83E3084E6116877
:102DBC0021F4806111600390516903919169039131
:102DCC000399116841F400711160DCE60000FFFF0B
:102DDC00116821F480611160116841F40061116087
:102DEC0004905169049192690492049ACBE600BF55
:102DFC002DE9F04182B00024019490F83D40BDF8DB
:102E0C002460202C03D0022002B0BDE8F081284CB5
:102E1C00284D2468E408A5FB0454240A04EB84041C
:102E2C0004EB8404019403E00468A569AF070CD596
:102E3C00019C651E0195002CF6D12023046380F8BB
:102E4C003C4080F83D300320DEE790F83C50012DEB
:102E5C00D9D025680127ED0780F83C7002D425688D
:102E6C003D4325602768DFF850E0002527F4006714
:102E7C004FF021084FF0400C276080F83D8080F81F
:102E8C003EC005644685C0F82CE041648264C3648E
:102E9C0005652368089A426243F4807306852360B3
:102EAC00636880F83C5043F4E06328466360ABE70A
:102EBC001000002089B5F8140000FFFF2DE9F04147
:102ECC0082B00024019490F83D40BDF82460202C81
:102EDC0003D0022002B0BDE8F0812C4C2C4D2468AC
:102EEC00E408A5FB0454240A04EB840404EB8404D6
:102EFC00019403E00468A569AF070CD5019C651E1D
:102F0C000195002CF6D12023046380F83C4080F816
:102F1C003D300320DEE790F83C50012DD9D02568D8
:102F2C000127ED0780F83C7002D425683D432560ED
:102F3C002768DFF860E0002527F400674FF02208CF
:102F4C004FF0400C276080F83D8080F83EC005644F
:102F5C004685C0F82CE041648264C364056523682F
:102F6C00089A426243F4806306852360236843F425
:102F7C008073236080F83C502EB1636843F4E063A7
:102F8C0028466360A6E73046A4E700BF1000002087
:102F9C0089B5F8140000FFFF2DE9F047044684B012
:102FAC0000201E46884617460290BDF83450FDF7A7
:102FBC0073FA94F83D30202B03D0022004B0BDE806
:102FCC00F0873E4B3E4A1B68DB08A2FB03231B0A1F
:102FDC0003EB830303EB83038146029303E0226834
:102FEC00936999070CD5029B5A1E0292002BF6D1BD
:102FFC002022236384F83C3084F83D200320DDE755
:10300C0094F83C30012BD8D013680121DB0784F8ED
:10301C003C1002D413680B4313601368294923F442
:10302C00006313604FF0210E40204FF0000A0C9B00
:10303C0084F83DE0636284F83E002585C4F840A026
:10304C006585E1620DB92846B8E7606BDFF87CE076
:10305C001D49C16410322B460C99C0F840A0C0F831
:10306C0044A0C0F848A0C0F850A0C0F83CE001F063
:10307C0087F923200090CDF8049041463A46334618
:10308C002046FDF739FE38B1236C84F83CA0042BA4
:10309C000CBF0120032091E7236803905A69039227
:1030AC009A690392039A5A6884F83C0042F480723D
:1030BC005A605A6842F400625A607FE710000020A0
:1030CC0089B5F8140000FFFF613400088D34000846
:1030DC002DE9F04387B004461E4688461746BDF8D6
:1030EC003C50FDF7D9F90023039394F83D30202B85
:1030FC0003D0022007B0BDE8F083524B524A1B6844
:10310C00DB08A2FB03231B0A03EB830303EB830300
:10311C008146039303E021688B699A070CD5039BC6
:10312C005A1E0392002BF6D12022236384F83C30E4
:10313C0084F83D200320DDE794F83C30012BD8D0F7
:10314C000B680122DB0784F83C2002D40B68134384
:10315C000B600B683D4823F400634FF0220C4FF0DA
:10316C00400E00220B6084F83DC084F83EE02264DF
:10317C006585E062638D0E9860629BB22385002B9F
:10318C0035D0A06BDFF8C8C0DFF8C8E0026410319E
:10319C00426482640265C0F83CC00E9AC0F84CE0F0
:1031AC0001F0EEF823200090CDF8049041463A4609
:1031BC0033462046FDF77AFE002834D1012D2368D2
:1031CC003BD05A6842F480525A60002104915A69EB
:1031DC0004929A690492049A5A6884F83C1042F456
:1031EC0080725A605A6842F400625A6082E7232067
:1031FC000090CDF8049041463A4633462046FDF700
:10320C0055FE80B9236805905A6905929A69059212
:10321C00059A1A68202142F400721A6084F83C0066
:10322C0084F83D1066E7236C042B4FF0000384F800
:10323C003C300CBF012003205CE71A6822F480624A
:10324C001A60C2E71000002089B5F8140000FFFFD7
:10325C008D340008613400082DE9F04F054683B029
:10326C001F4689469246FDF717F995F83D30202BFD
:10327C00064609D0022003B0BDE8F08FFDF70CF92B
:10328C00801B192800F29F802B689A69D24312F098
:10329C000204F3D095F83C20012AEBD01A680121E6
:1032AC00D00785F83C1002D41A680A431A601A68D1
:1032BC005E48002122F4006224241A6009F0FE0901
:1032CC0085F83D408B4629644FF0A008E8621A68E7
:1032DC0042F480721A607A1C60D15A69D607FCD508
:1032EC00C3F81090FDF7D8F82B68064658695A6950
:1032FC0095F83D10840702F48062C9B212D48AB9E1
:10330C00A0290FD01FB137E062B9A0290AD085F8E7
:10331C003D8058695A6995F83D10800702F4806227
:10332C00C9B2F1D5202285F83D205A6912F0020F5E
:10333C001A685DD16FF4806142F400721A605961B1
:10334C0005E0FDF7A9F8801B192832D82B689C6979
:10335C00E44314F00204F4D00BF1010BD345B6D3C3
:10336C002022002385F83D2085F83C30012082E79F
:10337C00002AD7D1A029D5D0FDF78EF8801B874223
:10338C002B6838BF85F83D8058695A6995F83D100F
:10339C00800702F48062C9B2C4D4E9E75A69D40741
:1033AC009ED4D7B1FDF778F8801B874215D32B68D4
:1033BC0091E720232C6385F83C4085F83D300320B1
:1033CC0085F83E4057E720232C6385F83C4085F870
:1033DC003D30022085F83E404DE7002320222B6330
:1033EC0085F83C3085F83D20032085F83E3042E7D7
:1033FC0042F4007200211A6001915A6901929A6993
:10340C000192019A05E0FDF747F8801B1928D0D8E6
:10341C002B689B69DB4313F00204F4D020230020BB
:10342C0085F83D3085F83C0025E700BF0000FFFF24
:10343C00704700BF704700BF704700BF704700BFA8
:10344C00704700BF704700BF704700BF704700BF98
:10345C00704700BF806B01680B6810B5002223F425
:10346C00806320240B60428580F83D4080F83E202C
:10347C00036C43F010030364FFF7EAFF10BD00BFB9
:10348C00806B08B590F83D3090F83E20DBB2212BD4
:10349C00D2B224D0222B20D003681A6822F4806286
:1034AC001A601A6842F400721A605A6822F4805248
:1034BC005A605A68002122F400625A604185036CFC
:1034CC00E3B9202280F83D2090F83E2080F83E3071
:1034DC00402A10D0FFF7AEFF08BD202ADCD10368CC
:1034EC005A68002122F400625A6041855A6842F4FD
:1034FC0040725A6008BDFFF7A9FF08BDFFF7A8FF8F
:10350C0008BD00BF704700BF38B590F83D30293B6F
:10351C00012B04464DD990F83D30602B036805D043
:10352C005A6815055CBF202280F83D2000222263DA
:10353C0084F83E201A6822F400621A605A6812F469
:10354C00006213D05A68606B22F400625A6090F8E3
:10355C003530012B34D0394B036500F09BFF00282C
:10356C005FD194F83D30282B13D038BD94F83D1022
:10357C00602941D05A69520604D5626A1B69511CF4
:10358C00616213702046FFF763FF94F83D30282BDF
:10359C00EBD1236C5B07E8D5294BE3622022002397
:1035AC002363204684F83D2084F83E30FFF74AFF21
:1035BC0038BD002328220363036880F83D20B9E757
:1035CC00A06B1E4B036500F065FF0028C9D0236873
:1035DC005A69500605D5626A1B69511C61621370E9
:1035EC0023681A68A06B22F0010220211A60036D77
:1035FC0084F83D109847B4E7202184F83D102264EC
:10360C005A69510605D5626A1B69511C61621370B7
:10361C0023681A6822F001021A602046FFF772FF35
:10362C009FE72268606B1368016D23F0010320256E
:10363C00136084F83D50884793E700BF713E000843
:10364C000000FFFF90F83E20102A01D001207047A7
:10365C0090F83C20012A01D10220704710B5026875
:10366C0000246021046380F83D10116821F480610E
:10367C001160116841F4007111604485516821F4A6
:10368C00E061516080F83C40FFF73EFF204610BDE2
:10369C00F0B5036804469D695A69586894F83E1061
:1036AC00C9B210298DB000F08F80402900F08C80B9
:1036BC008E49114019B3810500F11D828C492940B6
:1036CC00002900F0F9808B491140002940F0CE818F
:1036DC0089491140002900F08B80800540F18880D9
:1036EC00628D92B2002A00F08380626A511C616282
:1036FC0012781A61638D013B9BB2638578E07F4E33
:10370C001640002EDAD08605D8D594F83D2058689E
:10371C0020F4E06058600B9159690B91196841F0E5
:10372C00010119600B99196821F4806119605968BD
:10373C0008051F46D2B20ED594F83D10222900F090
:10374C005C8294F83D102A2900F05782616B09685D
:10375C00496889B26185618D89B2E1B159694907BE
:10376C0009D5616A1B69481C60620B70638D276800
:10377C00013B9BB263857B695E0608D5636A396938
:10378C00581C60621970638D013B9BB26385236C7E
:10379C0043F004032364236C002B40F04182A2F11C
:1037AC002801022940F2F481236B222B01D0222A1A
:1037BC001ED1002320222363204684F83D2084F868
:1037CC003E30FFF73BFE13E012F0011F12D08605CE
:1037DC0000F17A8146492940C9B146491140002976
:1037EC0040F0DF804449114011B1860500F19D8104
:1037FC000DB0F0BD42491140002944D08105E9D5F6
:10380C00616CC9B219613A4929400029E5D13D4999
:10381C001140002978D0450576D53749114000294B
:10382C0077D194F83D20222AE2D1628D92B2032AFC
:10383C0051D8023A012AE26A40F22182022A1A681D
:10384C00616A14BF22F4806242F480621A605A6882
:10385C0022F4E0625A601B694A1C62620B70638D31
:10386C00013B9BB22022638584F83D2094F83E30C6
:10387C00402B40F08D8000232363204684F83E309B
:10388C00FFF7E4FDB4E7194E1640002EA2D08705D1
:10389C00A0D594F83E60D4F82CE0D4F830C094F85D
:1038AC003D70222FF6B200F08B810A9159690A9172
:1038BC0099690A910A998DE712491140002940F043
:1038CC00A6800D491140002992D0820590D5628DB9
:1038DC0092B2002A8CD0626A1B69511C616213700F
:1038EC00638D013B9BB2638582E700BF0200010040
:1038FC000400100080000100040001001000010011
:10390C000800010040000100AB49114000293FF4C0
:10391C006FAF80057FF56CAFE16A628D92B2032ABE
:10392C0000F07181628D92B2022AD4D1042900F088
:10393C008581082900F0828111F5803F00F07E819D
:10394C001A68022914BF22F4806242F480621A6061
:10395C00626A1B69511C61621370638D626A216813
:10396C00013B9BB263850B69511C61621370638DC3
:10397C002268013B9BB263855368202123F440737A
:10398C00536084F83D1094F83E30402B3FF473AFF5
:10399C00122200232263204684F83E30FFF74AFDB2
:1039AC0026E747057FF51EAF8349114000297FF4B8
:1039BC001CAF94F83D20258D94F83E10E06AD2B2ED
:1039CC00C9B2002D40F03681212A00F075814029C2
:1039DC007FF40EAF222A7FF40BAF628D92B2002AD5
:1039EC0000F0588194F83E20402A7FF47EAE226D80
:1039FC00002A40F00082E26C012AA26C00F01F82C7
:103A0C00C2F307221A61236D01332365F0E64105E9
:103A1C007FF557AF6849114000297FF456AF94F8F1
:103A2C003D10628D92B2C9B2002A3FF4E1AE626AD7
:103A3C001B69501C60621370638D013B9BB26385E4
:103A4C00638D9BB2002B7FF4D3AE2A297FF4D0AECA
:103A5C0022685368222523F4806328215360204672
:103A6C00256384F83D10FFF7E9FCC1E645057FF5B9
:103A7C002FAE5149114000297FF42FAE94F83D1020
:103A8C00628D92B2C9B2002A3FF4B2AE626A501C87
:103A9C00606212781A61628D013A92B26285628D0F
:103AAC0092B2002A7FF4A4AE29297FF4A1AE5A6801
:103ABC00212522F4806228215A602046256384F84F
:103ACC003D10FFF7B9FC93E694F83E10402957D00F
:103ADC002169B1F5804F1CD0216D002964D0216D76
:103AEC0001297FF477AE616C01F44071C91141F08A
:103AFC00F10119616EE699699B6981F004011F0659
:103B0C00C1F3800154BFA289228B2046FFF798FC99
:103B1C006EE694F83D102129616C16BF41F001014D
:103B2C0001F0FE01C9B2196154E6E16A94F83D2036
:103B3C00212A7FF45DAE628D92B2002A7FF4D5AD5E
:103B4C00042905D0082903D011F5803F40F0A78047
:103B5C005A6822F4E0625A601A680021202042F46C
:103B6C0000721A60216384F83D0094F83E3084F8AA
:103B7C003E10402B204600F0BC80FFF759FC37E686
:103B8C00216D002950D1616C01F0FE01196121E613
:103B9C000A4AE26220222363204684F83D2084F8FE
:103BAC003E30FFF74FFC23E6616C01F44071C91104
:103BBC0041F0F00119610DE6040001000000FFFF67
:103BCC00216D11B9402E00F0B480266D26B9216903
:103BDC00B1F5404F00F0B480618D89B2002932D12B
:103BEC00039159690391996903910399196841F4F7
:103BFC000071196000212165ECE5A16B0968496829
:103C0C0089B26185A7E5042905D0082903D011F5EF
:103C1C00803F7FF460AE1A6822F480621A605AE624
:103C2C002046FFF771FCE3E5616C41F00101C9B27C
:103C3C001961CFE5212A7FF4CAAECEE61A6842F4A8
:103C4C0000721A6084E6618D89B2012954D0618DAD
:103C5C0089B2022900F08280196841F480611960F0
:103C6C005968090503D5596841F480515960002100
:103C7C00099159690991996909910999BAE7022A37
:103C8C001A6800F0CD8022F480621A601A6842F43F
:103C9C0000621A605A6822F480625A60A8E559687A
:103CAC00112621F4E061202559602046266384F812
:103CBC003E2084F83D5060E7042805D0082803D046
:103CCC0010F5803F40F088805A6822F4E0625A6018
:103CDC0019680022202041F400711960226384F8D5
:103CEC003D0094F83E3084F83E20402B20467FF473
:103CFC0044AFFFF7A9FB7BE51EF5803F58D0BEF122
:103D0C00040F45D0BEF1080F42D0BCF1120F3FD0CA
:103D1C00E16A0229196814BF21F4806141F48061C1
:103D2C0019600021069159690691996906910699C5
:103D3C0060E701915969019199690191019949E5EE
:103D4C00029659690291996902910299196841F494
:103D5C0080711960216D013121653BE5E16A022911
:103D6C00196859D021F480611960196841F4006117
:103D7C00196059680E0503D5596841F48051596092
:103D8C00002108915969089199690891089931E7BE
:103D9C001968002621F4806119600796596907910A
:103DAC00996907910799196841F40071196021E725
:103DBC00196821F480611960596811F4006133D0DD
:103DCC001968002621F480611960049659690491E0
:103DDC009969049104990DE75A68112622F4E0625E
:103DEC0020215A602046266384F83E5084F83D100A
:103DFC00FFF71EFBFCE4226D012A26D0226D022A5D
:103E0C007FF4F6AC94F83D20222A25D094F83D207E
:103E1C00212A7FF4EDAC68E441F480611960A8E7D5
:103E2C0042F480621A6035E70591596905919969E8
:103E3C0005910599196841F400711960DAE6D2B25E
:103E4C001A61236D02332365D2E4A26CD2B21A61DB
:103E5C00236D01332365CBE41A6842F480721A6037
:103E6C00C6E400BF806B0268116838B521F480612C
:103E7C000023456B846B1160438590F83D102B65D6
:103E8C0060294FF02001236580F83D1080F83E300A
:103E9C0006D0136823F001031360FFF7D9FA38BD7D
:103EAC000364136823F001031360FFF72BFB38BD89
:103EBC000368A24A70B55D6959682A400446002A15
:103ECC0034D0CE0540F18F80026C15F4813F6FF435
:103EDC00807042F001022264586133D0226C6FF47E
:103EEC00007042F0020215F4823F226458612CD01B
:103EFC0094F83E00628D94F83D10266B202892B207
:103F0C00C9B200F0A080226C42F00402226494F842
:103F1C003E20102A00F08B806FF480625A6115F4F9
:103F2C00843F40F08280236CF3B970BD15F4813F5F
:103F3C0002D0C805D2D4F6E715F4823F05D0CA05E5
:103F4C00D6D4F0E715F4823FD2D115F4843FEAD0F1
:103F5C00CE05E8D5226C6FF4006142F008022264B1
:103F6C005961236C002BE0D094F83D30293B012B98
:103F7C0062D994F83D30602B236805D05A6815053A
:103F8C005CBF202284F83D200022226384F83E206E
:103F9C001A6822F400621A605A6812F4006229D17D
:103FAC0094F83D1060297DD05A69520604D5626A96
:103FBC001B69511C616213702046FFF749FA94F893
:103FCC003D30282BB1D1236C5B07AED55C4BE36243
:103FDC00202200232363204684F83D2084F83E30C1
:103FEC00FFF730FA70BD15F4823F9CD115F4843F75
:103FFC0099D0ADE75A68606B22F400625A6090F871
:10400C003530012B63D04F4B036500F043FA002889
:10401C00D5D02268606B1368016D23F00103202555
:10402C00136084F83D508847C9E7236892E71A6803
:10403C0042F400721A606FE700232822236323687E
:10404C0084F83D20A4E7002A7FF45DAF01F0F7026D
:10405C00212A05D028297FF456AF212E7FF453AFA7
:10406C0094F83D20E16A0429D2B24DD008294BD0F6
:10407C00212A7FF451AF3249E162202000212263D2
:10408C0084F83D0084F83E105A686FF4806122F485
:10409C00E0625A6059611A680A401A602046FFF7BC
:1040AC00CBF93CE7202184F83D1022645A69510673
:1040BC0005D5626A1B69511C6162137023681A680A
:1040CC0022F001021A602046FFF71CFA77E7A06B7A
:1040DC001C4B036500F0DEF900283FF470AF236839
:1040EC005A69500605D5626A1B69511C61621370CE
:1040FC0023681A68A06B22F0010220211A60036D5C
:10410C0084F83D1098475AE7282AB1D10C4AE2624C
:10411C005A686FF4806122F4E0625A6059611A683F
:10412C00002122F4806220261A602046216384F844
:10413C003D6084F83E10FFF785F9F0E600010100C0
:10414C000000FFFF713E000890F83D00704700BF73
:10415C0090F83E00704700BF006C70472DE9F044AA
:10416C00074682B0FCF798F9002F7CD002223B68FE
:10417C0087F835201A68002122F0010287F83410E4
:10418C0004461A6005E0FCF787F9001B052844D8A3
:10419C003B681A68D107F6D47A6901927E68BA68CE
:1041AC00FD683C69D7F818C0396AD3F800A0DFF86D
:1041BC00F8E0786A16433543019A2C432243FC6994
:1041CC0042EA0C02224311430AEA0E0E042841EA89
:1041DC000E012BD01960596921F007010143DAB2A5
:1041EC002F4C5961103AA4FB021212092D4823F4EA
:1041FC007F73815CF96523F00303032A88BF0433C2
:10420C003F228A4001240021BB6508469A607965EB
:10421C0087F8354002B0BDE8F0840323202218460D
:10422C007A6587F8353002B0BDE8F084FC6A3A6BE9
:10423C00B86A2243114319605A6940F0040122F014
:10424C0007021143BCF1000F11D1012824D001D376
:10425C000228C4D1E201C2D5012340227A65184656
:10426C0087F83530D6E7012002B0BDE8F084BCF504
:10427C00005F04D00228EFD90328B0D1EAE7032865
:10428C00ADD801A252F820F0654200086142000846
:10429C0065420008A5420008B4F1C07F9FD1DBE75E
:1042AC00ABAAAAAA607E00083F8010F00246002844
:1042BC0031D090F83530DBB2022B2AD00368174886
:1042CC00D9B270B410391C68154DA0FB0101090955
:1042DC00002024F0010421261C60186058609860AE
:1042EC00D86018615E6123F47F736D5CD56523F033
:1042FC000303032988BF04333F240021AC4093659A
:10430C0008469C60516582F8341082F8351070BCF8
:10431C007047184670470120704700BFABAAAAAA85
:10432C00607E000870B490F83440012C0CD090F8EA
:10433C0035400125AC4280F8345008D0002380F879
:10434C00343070BC02207047022070BC7047046887
:10435C000226002580F8356045652568866825F4B9
:10436C008020402E206063600BBFA260A160E160E2
:10437C00E260236843F001032360002070BC7047A7
:10438C00F0B490F83440856D012C0CD090F8354089
:10439C000126B44280F8346008D0002380F8343011
:1043AC00F0BC022070470220F0BC70470468022762
:1043BC00002680F8357046652668876826F48026C6
:1043CC00402F266063600ABFA260A160E160C16DEE
:1043DC0018BFE2603F238B40026CAB60236843F054
:1043EC0016032360636943F0800363611AB1236889
:1043FC0043F008032360236843F00103236000208B
:10440C00F0BC704770B50446866DFCF745F894F81F
:10441C003530022B06D080220023626584F83430BC
:10442C00012070BD2368216C1A6822F016021A60F4
:10443C005A6922F0800205465A6131B31A6822F09B
:10444C0008021A601A6822F001021A6005E0FCF7F3
:10445C0023F8401B05280FD823681B6813F00103B1
:10446C00F5D1E16D3F228A400121B260184684F8F3
:10447C00343084F8351070BD20220023032062658F
:10448C0084F8343084F8350070BDA26C002AD5D184
:10449C00D8E700BF90F83530022B03D0802343655A
:1044AC00012070470268052380F83530136823F02B
:1044BC0001031360002070472DE9F04F044683B0D0
:1044CC0015460191FBF7E8FF94F83530022B08D024
:1044DC0080220023626584F83430012003B0BDE8EB
:1044EC00F08F23681B68DE055CD4019BE26D0646E9
:1044FC00002B52D04FF0100B0BFA02FBD4F858A043
:10450C00691CDAF8003064D0002D52D0DFF8BC9171
:10451C00DFF8BC81082713EA0B0F30D1636DDB0782
:10452C002DD4FBF7B9FF801B854248D3E26DDAF836
:10453C00003007FA02FE1EEA030F09FA02F008FA2D
:10454C0002F107D0D4F854C04CF0010CC4F854C09C
:10455C00CAF808E0184207D0D4F854E04EF0020E26
:10456C00C4F854E0CAF808001942D4D0606D13EABC
:10457C000B0F40F004006065CAF80810CED0636DD4
:10458C0013B1636DD9075AD4019B002B4BD0102368
:10459C009340CAF808300020A0E74FF0200B0BFA2C
:1045AC0002FBABE74FF480730120636503B0BDE8F9
:1045BC00F08F1BEA030FE2D1636DD807DFD4202103
:1045CC0000220123616584F8342084F835300320FF
:1045DC0084E73E4E3E4D082096409540904013EAAD
:1045EC000B0FCCD1636DDF07C9D4DAF80030184259
:1045FC0005D0616D41F001016165CAF808001E42E9
:10460C0005D0616D41F002016165CAF808601D4278
:10461C00E5D0616D13EA0B0F41F004016165CAF836
:10462C000850DFD0ABE730239340CAF80830019B29
:10463C0084F834300122184684F835204EE7A66DF4
:10464C00FBF72AFF94F83530022B05460ED0802359
:10465C00E26D63653023934000210122CAF80830D3
:10466C00104684F8341084F8352037E72368216C21
:10467C001A6822F016021A605A6922F080025A61F6
:10468C0001B31A6822F008021A601A6822F00102BB
:10469C001A6005E0FBF700FF401B05280BD82368C8
:1046AC001B68DB07F6D4E26D3F2393400121B36016
:1046BC0084F83510CEE7202203236265E26D84F87E
:1046CC003530C7E7A26C002ADBD1DEE701008000A1
:1046DC0004008000F0B583B00023876D0193C36D97
:1046EC003D68624908229A402A4204460E6803D06B
:1046FC0001680868400776D45D4A9A402A4203D084
:10470C0021684969080668D45A4A9A402A4203D05B
:10471C002168096889075AD410229A402A4203D08A
:10472C002168086800073FD420229A402A4203D00F
:10473C0021680868C00625D4636D0BB3636DDA0776
:10474C001AD50523216884F835300B684A4A23F0C2
:10475C000103A2FB06020B60920A02E00B68DB0766
:10476C0004D5019B01339A420193F7D20022012315
:10477C0084F8342084F83530E36C0BB1204698472C
:10478C0003B0F0BDBA6094F83520052A3BD00B6815
:10479C0013F4802F0B6854D019035FD5E36B002BF7
:1047AC00CAD020469847C7E7BA600A6812F4802F2F
:1047BC000A6822D1D20503D40A6822F008020A60E2
:1047CC00226C002AB0D020469047E36DACE7BA606B
:1047DC00626D42F0040262659EE7BA60626D42F05F
:1047EC000202626590E7086820F004000860BA6075
:1047FC00626D42F0010262657EE71103E0D5A26CA6
:10480C00002AE0D190E70A68206C22F016020A60B8
:10481C004A6922F080024A6120B30A6822F0080239
:10482C000A603F22216D02FA03F300200122BB60D3
:10483C0084F8340084F835200029A1D0204688471C
:10484C009EE713F48073A9D10A68012022F01002AC
:10485C000A6084F8343084F835009FE7636C002BD1
:10486C009FD169E7A26C002AD7D1DAE710000020AB
:10487C000100800004008000B5814E1B90F834309C
:10488C00012B10B404460DD090F83500012398424A
:10489C0084F834300AD00022184684F834205DF8AD
:1048AC00044B704702205DF8044B7047052916D85D
:1048BC00DFE801F0120F0C09060322650023EAE77A
:1048CC00E2640023E7E7A2640023E4E762640023C8
:1048DC00E1E722640023DEE7E2630023DBE7002349
:1048EC00D9E700BF90F83430012B02460BD090F87A
:1048FC0035000123984282F8343006D00021184646
:10490C0082F8341070470220704706291FD8DFE860
:10491C0001F01B1815120F0C04000023D363136451
:10492C0053649364D3641365E8E700231365E5E7E8
:10493C000023D364E2E700239364DFE7002353648E
:10494C00DCE700231364D9E70023D363D6E7012304
:10495C00D4E700BF90F83500704700BF406D70473A
:10496C00704700BFF0B50368DD0783B0044622D55D
:10497C00AB498A6802F00C02042A00F0EA808A68CB
:10498C0002F00C02082A00F0E080A64B22791A7083
:10499C006368002B00F0CB80FBF77EFDA04D064634
:1049AC0005E0FBF779FD801B642800F29F802B68E3
:1049BC009A03F6D523689F072DD5994A916811F073
:1049CC000C0F00F09A80916801F00C01082900F09E
:1049DC009080E368002B00F0D780934B904D012220
:1049EC001A60FBF759FD064604E0FBF755FD801BEA
:1049FC0002287BD82B688A4A9807F6D51168F820CC
:104A0C0090FAA0F02369B0FA80F021F0F80183400D
:104A1C000B43136023681A0720D4590734D4A269B6
:104A2C00CAB17F4B996801F00C0108296CD0022A9D
:104A3C007E4A4FF00001116000F0B7801C46FBF776
:104A4C002BFD054604E0FBF727FD401B02284DD843
:104A5C0023689B01F7D4002003B0F0BD6369002BE1
:104A6C0055D0734B6E4D01221A60FBF715FD0646AF
:104A7C0004E0FBF711FD801B022837D86B6F9F07F2
:104A8C00F7D523685907CAD5654B6A4D00220192A8
:104A9C001A6C42F080521A641B6C03F08053019321
:104AAC00019B2B6843F480732B60FBF7F5FC0646E7
:104ABC0004E0FBF7F1FC801B022817D82B68DA0501
:104ACC00F7D55D4B227A1A70A368002B00F0C080DA
:104ADC00FBF7E2FC524D074641F288362B6F9B07E1
:104AEC009DD4FBF7D9FCC01BB042F7D9032003B00F
:104AFC00F0BD526856023FF56CAF494A12689507F3
:104B0C0031D5E268012A2ED0012003B0F0BD484A0D
:104B1C00434D1360FBF7C0FC064604E0FBF7BCFCFE
:104B2C00801B0228E2D86B6F9807F7D4A9E7FBF734
:104B3C00B3FC3B4D064604E0FBF7AEFC801B64283F
:104B4C00D4D82B689B03F7D434E74A6850027FF51E
:104B5C001CAF334A126891037FF52DAF6268002AAF
:104B6C007FF429AFD0E72E4DF820296890FAA0F0F9
:104B7C002269B0FA80F021F0F80182400A432A60E1
:104B8C001A077FF54AAF69E7274A254D1360FBF7F3
:104B9C0083FC064604E0FBF77FFC801B0228A5D8AB
:104BAC002B689907F7D4236835E71D46FBF774FC8F
:104BBC00064604E0FBF770FC801B022896D82B6895
:104BCC00174A9901F6D447F6C07797FAA7F74FF42E
:104BDC004036B7FA87F796FAA6F64FF07060B6FA39
:104BEC0086F690FAA0F0A36A656AD4F820C0D4F8CF
:104BFC001CE0E16AB0FA80F05B0805FA07F4013BAF
:104C0C004CEA0E052C43B3408140234307480B4329
:104C1C000121536001601446FBF73EFC054613E08E
:104C2C000038024002380240000047426000474210
:104C3C00800E47420070004070380240FBF72CFC9D
:104C4C00401B02283FF652AF23689A01F6D502E7C3
:104C5C00FBF722FC064D074641F288362B6F98076E
:104C6C007FF5DDAEFBF718FCC01BB042F6D93DE773
:104C7C0000380240F0B5034689B00D46164618B30D
:104C8C00234C244800230293216B41F0040121633F
:104C9C00216B059301F0040102914FF4007E032275
:104CAC00022703A907930692DDF808C0CDF80CE0A3
:104CBC000497FBF7C5FDA36845EAC60223F07843C9
:104CCC001A43A26009B0F0BD114C0190226B12483E
:104CDC0042F001022263226B059302F00102019261
:104CEC004FF4807E0322022703A907930692DDF876
:104CFC0004C0CDF80CE00497FBF7A2FDA36823F0E9
:104D0C00EC6346EA03021543A56009B0F0BD00BF91
:104D1C00003802400008024000000240014B012212
:104D2C001A6070474C004742014B00221A607047D2
:104D3C004C0047421C498B6803F00C03042B31D008
:104D4C00082B2DD14A6830B44D6802F03F0447F669
:104D5C00C0734A68690293FAA3F347F6C07000EA7D
:104D6C0002004ABF1149124AB1FBF4F20E49B3FAE0
:104D7C0083F320FA03F058BFB2FBF4F202FB00F30A
:104D8C004FF44032486892FAA2F200F44030B2FA82
:104D9C0082F2D0400130400030BCB3FBF0F07047E1
:104DAC0003487047014870470038024000127A00EF
:104DBC000024F400564A136803F00F038B422DE9CC
:104DCC00F0410C46064609D2CBB21370136803F0BF
:104DDC000F038B4202D00120BDE8F08133689A07A3
:104DEC0006D54C48B268816821F0F0010A43826014
:104DFC00DF0726D57368012B00F084809A1E012AE8
:104E0C00444A126878D99107E5D5424DAA6822F038
:104E1C0003021343AB60FBF73FFB7368012B0746A0
:104E2C0041F288384CD0022B55D0032B05D15DE0D4
:104E3C00FBF732FBC01B404561D8AB6813F00C0F7D
:104E4C00F6D1334A136803F00F039C4206D2E3B247
:104E5C001370136803F00F03A342BCD133685A07D5
:104E6C0006D52C48F268816821F4E0510A4382602F
:104E7C001B0707D5274A3169936823F4604343EA3B
:104E8C00C1039360FFF756FF224B0146F0229B684B
:104E9C0092FAA2F203F0F003B2FA82F21E4D1F4C0A
:104EAC00D3400F20EB5C21FA03F32360FBF7BCFA31
:104EBC000020BDE8F081FBF7EFFAC01B40451ED87F
:104ECC00AB6803F00C03042BF5D1BAE7FBF7E4FA5B
:104EDC00C01B404513D8AB6803F00C03082BF5D16D
:104EEC00AFE7FBF7D9FAC01B404508D8AB6803F015
:104EFC000C030C2BF5D1A4E7900186D46BE70320AF
:104F0C00BDE8F081034A126895033FF57EAF62E776
:104F1C00003C024000380240687E0008100000206F
:104F2C00014B1868704700BF10000020084B4FF46D
:104F3C00E0529B6892FAA2F203F4E053B2FA82F2C6
:104F4C0004490548D3400068CB5CD840704700BF8B
:104F5C0000380240687E000810000020084B4FF417
:104F6C0060429B6892FAA2F203F46043B2FA82F2B6
:104F7C0004490548D3400068CB5CD840704700BF5B
:104F8C0000380240687E0008100000200F22334BCE
:104F9C0002601A68520310B451D5052343602F499F
:104FAC000B6803F00103C3600B68F82292FAA2F2BB
:104FBC0003F0F803B2FA82F2D34003610B6F5B0784
:104FCC0044D505238360254A536F03F001034361E5
:104FDC00136813F0807F14BF02230123836153688D
:104FEC0003F48003C361536803F03F030362546806
:104FFC0047F6C07191FAA1F147F6C0732340B1FA9C
:10500C0081F1CB40436253684FF4403191FAA1F1E6
:10501C0003F4403303F580335B00B1FA81F1CB40EC
:10502C00836253684FF0706292FAA2F203F07063DD
:10503C00B2FA82F2D340C3625DF8044B70471B682E
:10504C0013F4803318BF01234360A8E70B6F13F0F0
:10505C00010318BF01238360B5E700BF003802408D
:10506C000E4B0F2202609A6802F0030242609A68AB
:10507C0002F0F00282609A6802F4E052C2609B680F
:10508C0003F4604310B4DB08054C036123685DF83E
:10509C00044B03F00F030B60704700BF0038024055
:1050AC00003C0240704700BF08B5054BDB681B068F
:1050BC0004D5FFF7F7FF034B80221A7008BD00BF21
:1050CC00003802400E38024038B54FF4007292FAA4
:1050DC00A2F20C4BB2FA82F213449B0001221A602A
:1050EC00FBF7DAF9084C054605E0FBF7D5F9401B50
:1050FC00B0F57A7F04D863681B07F6D5002038BD5D
:10510C00032038BD208083100070004038B54FF468
:10511C00007292FAA2F20C4BB2FA82F213449B0088
:10512C0000221A60FBF7B8F9084C054605E0FBF7BE
:10513C00B3F9401BB0F57A7F04D8606810F0080012
:10514C00F5D138BD032038BD20808310007000409D
:10515C004FF4007393FAA3F3B3FA83F303F184537C
:10516C0003F560339B0001221A6070474FF4007303
:10517C0093FAA3F3B3FA83F303F1845303F5603387
:10518C009B0000221A607047024B186800F44040E4
:10519C00704700BF0070004070B582B0294C0022EF
:1051AC000092236C43F080532364236C03F08053F0
:1051BC000093009BA36803F00C03082B3ED0224BFA
:1051CC001A600646FBF768F9054604E0FBF764F93C
:1051DC00401B02282FD8236813F00073F6D11B4A0A
:1051EC00019313681849174C23F440431E4316606F
:1051FC00136803F4404301930123019A0B60FBF7FE
:10520C004BF9054604E0FBF747F9401B022812D87E
:10521C0023689A01F7D5FBF73FF90C4C054605E0DE
:10522C00FBF73AF9401BB0F57A7F04D863685B044E
:10523C00F6D5002000E0032002B070BD012002B0C2
:10524C0070BD00BF00380240600047420070004053
:10525C0030B583B0234B002201921A6C42F080527D
:10526C001A641B6C03F080530193019B4FF4803341
:10527C0093FAA3F3B3FA83F303F1845303F5603386
:10528C009B0001221A60FBF707F9174C054605E055
:10529C00FBF702F9401BB0F57A7F20D86368DA037C
:1052AC00F6D54FF4003393FAA3F3B3FA83F303F177
:1052BC00845303F560339B0001221A60FBF7ECF872
:1052CC00094C054605E0FBF7E7F8401BB0F57A7F83
:1052DC0005D863689B03F6D5002003B030BD0320CE
:1052EC0003B030BD003802400070004030B583B0D0
:1052FC00234B002101911A6C42F080521A641B6CF2
:10530C0003F080530193019B4FF4003393FAA3F302
:10531C00B3FA83F303F1845303F560339B00194C08
:10532C001960FBF7B9F8054605E0FBF7B5F8401B2B
:10533C00B0F57A7F20D8636813F40033F5D14FF4BD
:10534C00803292FAA2F2B2FA82F202F1845202F59F
:10535C00603292000B4C1360FBF79EF8054605E09B
:10536C00FBF79AF8401BB0F57A7F05D8606810F40B
:10537C008030F5D103B030BD032003B030BD00BF89
:10538C000038024000700040F0B583B0214B224C35
:10539C00002201921A6C42F080521A641B6C03F0CA
:1053AC0080530193019B636843F44023636023683B
:1053BC0043F44023236006460D46FBF76DF8074681
:1053CC0005E0FBF769F8C01BB0F57A7F1DD8636860
:1053DC00114A03F44023B3F5402FF2D013680F4960
:1053EC0023F4406323F003031E4316600B69012D65
:1053FC0043F004030B610BD020BF084A1369002053
:10540C0023F00403136103B0F0BD032003B0F0BD1F
:10541C0030BFF2E7003802400070004000ED00E0C1
:10542C00704700BF002855D02DE9F04190F851305D
:10543C0082B0804603F0FF02002B46D0D8F8203013
:10544C00D8F804700193D8F80830D8F80C60D8F864
:10545C001050D8F81440D8F81C10D8F80000D8F820
:10546C001820D8F828C01F433E4335432C43019BDA
:10547C00022588F8515021430B43016802F4007E49
:10548C00140C43EA0C03D8F8242043EA0E03BCF5B1
:10549C00005F04F0040421F04001016044EA0202C0
:1054AC00036008BFD8F82C30426008BF0361C369A1
:1054BC00002223F40063C36101211046C8F8542074
:1054CC0088F8511002B0BDE8F08180F85020FFF749
:1054DC00A7FFB3E701207047704700BF90B1026887
:1054EC00022310B580F85130136823F040030446B2
:1054FC001360FFF7F1FF0020606584F8500084F81A
:10550C00510010BD012070472DE9F041044690F880
:10551C005000012882B003D1022002B0BDE8F08116
:10552C001E46012384F850300D461746FAF7B4FF97
:10553C00804694F85100C0B2012809D00220012203
:10554C00002384F8512084F8503002B0BDE8F0817B
:10555C00002DF4D0002FF2D0A26825630023B2F501
:10556C00004F4FF00301226884F851106365E78601
:10557C00E387A363A3876364236408BF1368A786C8
:10558C0004BF43F480431360A36AB3F5005F00F0DB
:10559C00F4801368590603D4136843F04003136076
:1055AC00E368B3F5006F636800F09A80002B00F09D
:1055BC008E80E38E9BB2012B00F08980731C2FD060
:1055CC00002E41D0E38E9BB26BB193689F074FD4F2
:1055DC00FAF762FFC8EB0000864276D9E38E2268A8
:1055EC009BB2002BF1D1731C4BD193689F07FCD558
:1055FC00701C40F0D48093681906FCD4A3682BB9B6
:10560C000193D368019393680193019BA36AB3F54B
:10561C00005F00F0EF80606D003018BF01208EE756
:10562C00E38E9BB2002BDED093689807F8D515F863
:10563C00013B1373E38E2268013B9BB2E386E38E3E
:10564C009BB2002BF0D1CEE7E38E9BB2002BCAD0DD
:10565C009368990739D515F8013B1373E38E2268CB
:10566C00013B9BB2E386E38E9BB2002BF0D1BAE7F1
:10567C0015F8013B1373E38E2268013B9BB2E38662
:10568C00A0E793689D07B3D436B1FAF705FFC8EBD2
:10569C00000086422268A6D85368616823F0E003B4
:1056AC00B1F5827F536000F0AA80A36AB3F5005F66
:1056BC0008D111684DF6FF730B401360136843F467
:1056CC0000531360012384F85130032037E715F899
:1056DC00013B1373E38E2268013B9BB2E3866DE7BB
:1056EC00002B54D0E38E9BB2012B50D0731C14D0E2
:1056FC003EB3E38E9BB2002B3FF475AF93689F07CC
:10570C0033D4FAF7C9FEC8EB00008642DDD9E38E2C
:10571C0022689BB2002BF1D165E7E38E9BB2002B84
:10572C003FF461AF93689807F7D535F8023BD36027
:10573C00E38E013B9BB2E386E38E9BB2002BF1D14F
:10574C0051E7E38E9BB2002B3FF44DAF9368990762
:10575C00BBD535F8023BD360E38E013B9BB2E386AD
:10576C00E38E9BB2002BF1D13DE735F8023BD360C1
:10577C00E38E013B9BB2E386BBE711684DF6FF73EA
:10578C000B401360136843F40053136001E735F8C2
:10579C00023BD360E38E013B9BB2E386A6E79368A2
:1057AC001B067FF52BAF3EB1FAF776FEC8EB000077
:1057BC00864222683FF61CAF5368616823F0E00311
:1057CC00B1F5827F536027D0A36AB3F5005F08D18F
:1057DC0011684DF6FF730B401360136843F40053CC
:1057EC001360012084F85100636D2022134363651C
:1057FC006265A4E6136843F4805313600BE7A36857
:10580C00B3F5004F03D0B3F5806F7FF44EAF136840
:10581C0023F04003136048E7A368B3F5004F02D0B0
:10582C00B3F5806FD0D1136823F040031360CBE73E
:10583C002DE9F043044690F8500083B00025012870
:10584C00ADF802500A9E03D1022003B0BDE8F083EC
:10585C009046012284F850200D469946FAF71CFE1A
:10586C0094F851206168D2B2012A074612D0B1F5E2
:10587C00827F0AD0022501220023284684F8512079
:10588C0084F8503003B0BDE8F083A368002BF1D14D
:10589C00042AEFD1002D76D0B8F1000F73D0B9F1F6
:1058AC00000F70D094F85130C4F83880012B04BF2D
:1058BC00052384F85130A36AA4F83C900022B3F578
:1058CC00005F62652563A4F83E90A4F834902264CE
:1058DC006264A4F83690236800F0D2801A685006EF
:1058EC0003D41A6842F040021A60E268B2F5006F05
:1058FC004BD0002900F09780E28E92B2012A00F082
:10590C0092804FF00109E38E9BB21BB9E38F9BB2DF
:10591C00002B4CD0B9F1000F1AD0E38E9BB2002BA8
:10592C007BD023689A68910777D52A781A73E38E0F
:10593C00013B9BB2E386B4F836901FFA89F301352C
:10594C00002B6DD1A26AB2F5005F00F0DF809946A2
:10595C00E38F9BB273B123689A68D2070AD5DB68D0
:10596C0088F80030E38F013B9BB208F10108E38714
:10597C004FF00109701CC6D0FAF78EFDC01B864291
:10598C00C1D8032577E7012575E7002900F0C7800A
:10599C00E28E92B2012A00F0C2804FF00109E38E30
:1059AC009BB2002B76D1E38F9BB2002B72D1A36AF2
:1059BC00B3F5005F23D02268906810F0100000F05F
:1059CC00AC80636D4FF6EF7143F002036365012504
:1059DC009160701C2FD193689907FCD5701C40F016
:1059EC00A68093681906FCD4A368002B7FF443AF00
:1059FC000193D368019393680193019B3BE7711C5E
:105A0C00226840F0C5809368DB07FCD5D3689BB255
:105A1C00ADF80230BDF80230CEE74FF0010997E740
:105A2C004FF0000994E715F8012B1A73E38E013B34
:105A3C009BB2E38665E793689B07CFD42EB1FAF748
:105A4C002BFDC01B86422268C3D85368616823F0C3
:105A5C00E003B1F5827F536000F0C380A36AB3F515
:105A6C00005F08D111684DF6FF730B40136013688B
:105A7C0043F400531360012384F851300325FAE6F4
:105A8C0018684DF6FF7202401A601A6842F4005210
:105A9C001A6023E7B9F1000F18D0E38E9BB2002BEC
:105AAC002ED02268936899072AD535F8023BD3602B
:105ABC00E38E013B9BB2E386B4F836901FFA89F370
:105ACC000BBBA16AB1F5005F5CD09946E38F9BB22A
